{
  "contractName": "Evote",
  "abi": [
    {
      "anonymous": false,
      "inputs": [
        {
          "indexed": false,
          "internalType": "string",
          "name": "accountAddress",
          "type": "string"
        },
        {
          "indexed": false,
          "internalType": "string",
          "name": "email",
          "type": "string"
        }
      ],
      "name": "aadharCreated",
      "type": "event"
    },
    {
      "anonymous": false,
      "inputs": [
        {
          "indexed": false,
          "internalType": "string",
          "name": "accountAddress",
          "type": "string"
        },
        {
          "indexed": false,
          "internalType": "string",
          "name": "aadhar",
          "type": "string"
        }
      ],
      "name": "emailCreated",
      "type": "event"
    },
    {
      "inputs": [
        {
          "internalType": "string",
          "name": "",
          "type": "string"
        }
      ],
      "name": "aadharList",
      "outputs": [
        {
          "internalType": "string",
          "name": "accountAddress",
          "type": "string"
        },
        {
          "internalType": "string",
          "name": "email",
          "type": "string"
        }
      ],
      "stateMutability": "view",
      "type": "function",
      "constant": true
    },
    {
      "inputs": [],
      "name": "adminAddress",
      "outputs": [
        {
          "internalType": "string",
          "name": "",
          "type": "string"
        }
      ],
      "stateMutability": "view",
      "type": "function",
      "constant": true
    },
    {
      "inputs": [],
      "name": "candidatesCount",
      "outputs": [
        {
          "internalType": "uint256",
          "name": "",
          "type": "uint256"
        }
      ],
      "stateMutability": "view",
      "type": "function",
      "constant": true
    },
    {
      "inputs": [
        {
          "internalType": "uint256",
          "name": "",
          "type": "uint256"
        }
      ],
      "name": "candidatesList",
      "outputs": [
        {
          "internalType": "uint256",
          "name": "id",
          "type": "uint256"
        },
        {
          "internalType": "string",
          "name": "name",
          "type": "string"
        },
        {
          "internalType": "string",
          "name": "age",
          "type": "string"
        },
        {
          "internalType": "string",
          "name": "party",
          "type": "string"
        },
        {
          "internalType": "string",
          "name": "qualification",
          "type": "string"
        },
        {
          "internalType": "uint256",
          "name": "voteCount",
          "type": "uint256"
        },
        {
          "internalType": "string",
          "name": "symbol",
          "type": "string"
        }
      ],
      "stateMutability": "view",
      "type": "function",
      "constant": true
    },
    {
      "inputs": [],
      "name": "changeState",
      "outputs": [
        {
          "internalType": "string",
          "name": "",
          "type": "string"
        }
      ],
      "stateMutability": "view",
      "type": "function",
      "constant": true
    },
    {
      "inputs": [
        {
          "internalType": "string",
          "name": "",
          "type": "string"
        }
      ],
      "name": "emailList",
      "outputs": [
        {
          "internalType": "string",
          "name": "accountAddress",
          "type": "string"
        },
        {
          "internalType": "string",
          "name": "aadhar",
          "type": "string"
        }
      ],
      "stateMutability": "view",
      "type": "function",
      "constant": true
    },
    {
      "inputs": [],
      "name": "userCount",
      "outputs": [
        {
          "internalType": "uint256",
          "name": "",
          "type": "uint256"
        }
      ],
      "stateMutability": "view",
      "type": "function",
      "constant": true
    },
    {
      "inputs": [
        {
          "internalType": "string",
          "name": "",
          "type": "string"
        }
      ],
      "name": "usersList",
      "outputs": [
        {
          "internalType": "string",
          "name": "username",
          "type": "string"
        },
        {
          "internalType": "string",
          "name": "email",
          "type": "string"
        },
        {
          "internalType": "string",
          "name": "password",
          "type": "string"
        },
        {
          "internalType": "bool",
          "name": "isVoted",
          "type": "bool"
        },
        {
          "internalType": "string",
          "name": "aadhar",
          "type": "string"
        },
        {
          "internalType": "string",
          "name": "userAddress",
          "type": "string"
        }
      ],
      "stateMutability": "view",
      "type": "function",
      "constant": true
    },
    {
      "inputs": [
        {
          "internalType": "string",
          "name": "_username",
          "type": "string"
        },
        {
          "internalType": "string",
          "name": "_email",
          "type": "string"
        },
        {
          "internalType": "string",
          "name": "_password",
          "type": "string"
        },
        {
          "internalType": "string",
          "name": "_aadhar",
          "type": "string"
        },
        {
          "internalType": "string",
          "name": "_userAddress",
          "type": "string"
        }
      ],
      "name": "createUser",
      "outputs": [],
      "stateMutability": "nonpayable",
      "type": "function"
    },
    {
      "inputs": [
        {
          "internalType": "string",
          "name": "_name",
          "type": "string"
        },
        {
          "internalType": "string",
          "name": "_age",
          "type": "string"
        },
        {
          "internalType": "string",
          "name": "_party",
          "type": "string"
        },
        {
          "internalType": "string",
          "name": "_qualification",
          "type": "string"
        },
        {
          "internalType": "string",
          "name": "_symbol",
          "type": "string"
        }
      ],
      "name": "createCandidate",
      "outputs": [],
      "stateMutability": "nonpayable",
      "type": "function"
    },
    {
      "inputs": [
        {
          "internalType": "uint256",
          "name": "id",
          "type": "uint256"
        },
        {
          "internalType": "string",
          "name": "_email",
          "type": "string"
        }
      ],
      "name": "addVote",
      "outputs": [],
      "stateMutability": "nonpayable",
      "type": "function"
    },
    {
      "inputs": [
        {
          "internalType": "string",
          "name": "_name",
          "type": "string"
        },
        {
          "internalType": "string",
          "name": "_adminAddress",
          "type": "string"
        }
      ],
      "name": "changeStates",
      "outputs": [],
      "stateMutability": "nonpayable",
      "type": "function"
    },
    {
      "inputs": [
        {
          "internalType": "string",
          "name": "_email",
          "type": "string"
        }
      ],
      "name": "appendIsVote",
      "outputs": [],
      "stateMutability": "nonpayable",
      "type": "function"
    },
    {
      "inputs": [
        {
          "internalType": "string",
          "name": "_aadharNum",
          "type": "string"
        },
        {
          "internalType": "string",
          "name": "_accountAddress",
          "type": "string"
        },
        {
          "internalType": "string",
          "name": "_email",
          "type": "string"
        }
      ],
      "name": "createAdharEmail",
      "outputs": [],
      "stateMutability": "nonpayable",
      "type": "function"
    }
  ],
  "bytecode": "0x608060405260008055600060015560405180602001604052806000815250600290805190602001906200003492919062000071565b5060405180602001604052806000815250600390805190602001906200005c92919062000071565b503480156200006a57600080fd5b5062000186565b8280546200007f9062000150565b90600052602060002090601f016020900481019282620000a35760008555620000ef565b82601f10620000be57805160ff1916838001178555620000ef565b82800160010185558215620000ef579182015b82811115620000ee578251825591602001919060010190620000d1565b5b509050620000fe919062000102565b5090565b5b808211156200011d57600081600090555060010162000103565b5090565b7f4e487b7100000000000000000000000000000000000000000000000000000000600052602260045260246000fd5b600060028204905060018216806200016957607f821691505b6020821081141562000180576200017f62000121565b5b50919050565b61194080620001966000396000f3fe608060405234801561001057600080fd5b50600436106100ea5760003560e01c806365c06f701161008c578063982c90a911610066578063982c90a914610250578063df2d5ec71461026c578063fc6f9468146102a2578063fdc15909146102c0576100ea565b806365c06f70146101fa57806378c4c488146102165780638412e66714610232576100ea565b80630fcaac1b116100c85780630fcaac1b1461016f5780632d35a8a21461018b5780633541a13d146101a95780634cbce6ac146101c5576100ea565b806301a8445b146100ef57806307973ccf146101205780630f9181e11461013e575b600080fd5b61010960048036038101906101049190611274565b6102dc565b604051610117929190611345565b60405180910390f35b610128610426565b6040516101359190611395565b60405180910390f35b61015860048036038101906101539190611274565b61042c565b604051610166929190611345565b60405180910390f35b610189600480360381019061018491906113dc565b610576565b005b6101936105e0565b6040516101a09190611395565b60405180910390f35b6101c360048036038101906101be9190611438565b6105e6565b005b6101df60048036038101906101da9190611274565b6106ca565b6040516101f1969594939291906114fa565b60405180910390f35b610214600480360381019061020f919061157e565b6109d1565b005b610230600480360381019061022b9190611274565b610af2565b005b61023a610b2f565b6040516102479190611685565b60405180910390f35b61026a600480360381019061026591906116a7565b610bbd565b005b6102866004803603810190610281919061171f565b610bef565b604051610299979695949392919061174c565b60405180910390f35b6102aa610ed9565b6040516102b79190611685565b60405180910390f35b6102da60048036038101906102d5919061157e565b610f67565b005b6006818051602081018201805184825260208301602085012081835280955050505050506000915090508060000180546103159061180d565b80601f01602080910402602001604051908101604052809291908181526020018280546103419061180d565b801561038e5780601f106103635761010080835404028352916020019161038e565b820191906000526020600020905b81548152906001019060200180831161037157829003601f168201915b5050505050908060010180546103a39061180d565b80601f01602080910402602001604051908101604052809291908181526020018280546103cf9061180d565b801561041c5780601f106103f15761010080835404028352916020019161041c565b820191906000526020600020905b8154815290600101906020018083116103ff57829003601f168201915b5050505050905082565b60015481565b6005818051602081018201805184825260208301602085012081835280955050505050506000915090508060000180546104659061180d565b80601f01602080910402602001604051908101604052809291908181526020018280546104919061180d565b80156104de5780601f106104b3576101008083540402835291602001916104de565b820191906000526020600020905b8154815290600101906020018083116104c157829003601f168201915b5050505050908060010180546104f39061180d565b80601f016020809104026020016040519081016040528092919081815260200182805461051f9061180d565b801561056c5780601f106105415761010080835404028352916020019161056c565b820191906000526020600020905b81548152906001019060200180831161054f57829003601f168201915b5050505050905082565b60046000838152602001908152602001600020600501600081548092919061059d9061186e565b919050555060016007826040516105b491906118f3565b908152602001604051809103902060030160006101000a81548160ff0219169083151502179055505050565b60005481565b60405180604001604052808381526020018281525060068460405161060b91906118f3565b90815260200160405180910390206000820151816000019080519060200190610635929190611077565b506020820151816001019080519060200190610652929190611077565b509050508260078260405161066791906118f3565b9081526020016040518091039020600401908051906020019061068b929190611077565b507f67a61a7d93b3f5c541318aa6f015f8879eb4975e7a1c7534d29451d68d7468d882826040516106bd929190611345565b60405180910390a1505050565b6007818051602081018201805184825260208301602085012081835280955050505050506000915090508060000180546107039061180d565b80601f016020809104026020016040519081016040528092919081815260200182805461072f9061180d565b801561077c5780601f106107515761010080835404028352916020019161077c565b820191906000526020600020905b81548152906001019060200180831161075f57829003601f168201915b5050505050908060010180546107919061180d565b80601f01602080910402602001604051908101604052809291908181526020018280546107bd9061180d565b801561080a5780601f106107df5761010080835404028352916020019161080a565b820191906000526020600020905b8154815290600101906020018083116107ed57829003601f168201915b50505050509080600201805461081f9061180d565b80601f016020809104026020016040519081016040528092919081815260200182805461084b9061180d565b80156108985780601f1061086d57610100808354040283529160200191610898565b820191906000526020600020905b81548152906001019060200180831161087b57829003601f168201915b5050505050908060030160009054906101000a900460ff16908060040180546108c09061180d565b80601f01602080910402602001604051908101604052809291908181526020018280546108ec9061180d565b80156109395780601f1061090e57610100808354040283529160200191610939565b820191906000526020600020905b81548152906001019060200180831161091c57829003601f168201915b50505050509080600501805461094e9061180d565b80601f016020809104026020016040519081016040528092919081815260200182805461097a9061180d565b80156109c75780601f1061099c576101008083540402835291602001916109c7565b820191906000526020600020905b8154815290600101906020018083116109aa57829003601f168201915b5050505050905086565b600160008154809291906109e49061186e565b91905055506040518060c0016040528086815260200185815260200184815260200160001515815260200183815260200182815250600785604051610a2991906118f3565b90815260200160405180910390206000820151816000019080519060200190610a53929190611077565b506020820151816001019080519060200190610a70929190611077565b506040820151816002019080519060200190610a8d929190611077565b5060608201518160030160006101000a81548160ff0219169083151502179055506080820151816004019080519060200190610aca929190611077565b5060a0820151816005019080519060200190610ae7929190611077565b509050505050505050565b6001600782604051610b0491906118f3565b908152602001604051809103902060030160006101000a81548160ff02191690831515021790555050565b60028054610b3c9061180d565b80601f0160208091040260200160405190810160405280929190818152602001828054610b689061180d565b8015610bb55780601f10610b8a57610100808354040283529160200191610bb5565b820191906000526020600020905b815481529060010190602001808311610b9857829003601f168201915b505050505081565b8160029080519060200190610bd3929190611077565b508060039080519060200190610bea929190611077565b505050565b6004602052806000526040600020600091509050806000015490806001018054610c189061180d565b80601f0160208091040260200160405190810160405280929190818152602001828054610c449061180d565b8015610c915780601f10610c6657610100808354040283529160200191610c91565b820191906000526020600020905b815481529060010190602001808311610c7457829003601f168201915b505050505090806002018054610ca69061180d565b80601f0160208091040260200160405190810160405280929190818152602001828054610cd29061180d565b8015610d1f5780601f10610cf457610100808354040283529160200191610d1f565b820191906000526020600020905b815481529060010190602001808311610d0257829003601f168201915b505050505090806003018054610d349061180d565b80601f0160208091040260200160405190810160405280929190818152602001828054610d609061180d565b8015610dad5780601f10610d8257610100808354040283529160200191610dad565b820191906000526020600020905b815481529060010190602001808311610d9057829003601f168201915b505050505090806004018054610dc29061180d565b80601f0160208091040260200160405190810160405280929190818152602001828054610dee9061180d565b8015610e3b5780601f10610e1057610100808354040283529160200191610e3b565b820191906000526020600020905b815481529060010190602001808311610e1e57829003601f168201915b505050505090806005015490806006018054610e569061180d565b80601f0160208091040260200160405190810160405280929190818152602001828054610e829061180d565b8015610ecf5780601f10610ea457610100808354040283529160200191610ecf565b820191906000526020600020905b815481529060010190602001808311610eb257829003601f168201915b5050505050905087565b60038054610ee69061180d565b80601f0160208091040260200160405190810160405280929190818152602001828054610f129061180d565b8015610f5f5780601f10610f3457610100808354040283529160200191610f5f565b820191906000526020600020905b815481529060010190602001808311610f4257829003601f168201915b505050505081565b600080815480929190610f799061186e565b91905055506040518060e00160405280600054815260200186815260200185815260200184815260200183815260200160008152602001828152506004600080548152602001908152602001600020600082015181600001556020820151816001019080519060200190610fee929190611077565b50604082015181600201908051906020019061100b929190611077565b506060820151816003019080519060200190611028929190611077565b506080820151816004019080519060200190611045929190611077565b5060a0820151816005015560c082015181600601908051906020019061106c929190611077565b509050505050505050565b8280546110839061180d565b90600052602060002090601f0160209004810192826110a557600085556110ec565b82601f106110be57805160ff19168380011785556110ec565b828001600101855582156110ec579182015b828111156110eb5782518255916020019190600101906110d0565b5b5090506110f991906110fd565b5090565b5b808211156111165760008160009055506001016110fe565b5090565b6000604051905090565b600080fd5b600080fd5b600080fd5b600080fd5b6000601f19601f8301169050919050565b7f4e487b7100000000000000000000000000000000000000000000000000000000600052604160045260246000fd5b61118182611138565b810181811067ffffffffffffffff821117156111a05761119f611149565b5b80604052505050565b60006111b361111a565b90506111bf8282611178565b919050565b600067ffffffffffffffff8211156111df576111de611149565b5b6111e882611138565b9050602081019050919050565b82818337600083830152505050565b6000611217611212846111c4565b6111a9565b90508281526020810184848401111561123357611232611133565b5b61123e8482856111f5565b509392505050565b600082601f83011261125b5761125a61112e565b5b813561126b848260208601611204565b91505092915050565b60006020828403121561128a57611289611124565b5b600082013567ffffffffffffffff8111156112a8576112a7611129565b5b6112b484828501611246565b91505092915050565b600081519050919050565b600082825260208201905092915050565b60005b838110156112f75780820151818401526020810190506112dc565b83811115611306576000848401525b50505050565b6000611317826112bd565b61132181856112c8565b93506113318185602086016112d9565b61133a81611138565b840191505092915050565b6000604082019050818103600083015261135f818561130c565b90508181036020830152611373818461130c565b90509392505050565b6000819050919050565b61138f8161137c565b82525050565b60006020820190506113aa6000830184611386565b92915050565b6113b98161137c565b81146113c457600080fd5b50565b6000813590506113d6816113b0565b92915050565b600080604083850312156113f3576113f2611124565b5b6000611401858286016113c7565b925050602083013567ffffffffffffffff81111561142257611421611129565b5b61142e85828601611246565b9150509250929050565b60008060006060848603121561145157611450611124565b5b600084013567ffffffffffffffff81111561146f5761146e611129565b5b61147b86828701611246565b935050602084013567ffffffffffffffff81111561149c5761149b611129565b5b6114a886828701611246565b925050604084013567ffffffffffffffff8111156114c9576114c8611129565b5b6114d586828701611246565b9150509250925092565b60008115159050919050565b6114f4816114df565b82525050565b600060c0820190508181036000830152611514818961130c565b90508181036020830152611528818861130c565b9050818103604083015261153c818761130c565b905061154b60608301866114eb565b818103608083015261155d818561130c565b905081810360a0830152611571818461130c565b9050979650505050505050565b600080600080600060a0868803121561159a57611599611124565b5b600086013567ffffffffffffffff8111156115b8576115b7611129565b5b6115c488828901611246565b955050602086013567ffffffffffffffff8111156115e5576115e4611129565b5b6115f188828901611246565b945050604086013567ffffffffffffffff81111561161257611611611129565b5b61161e88828901611246565b935050606086013567ffffffffffffffff81111561163f5761163e611129565b5b61164b88828901611246565b925050608086013567ffffffffffffffff81111561166c5761166b611129565b5b61167888828901611246565b9150509295509295909350565b6000602082019050818103600083015261169f818461130c565b905092915050565b600080604083850312156116be576116bd611124565b5b600083013567ffffffffffffffff8111156116dc576116db611129565b5b6116e885828601611246565b925050602083013567ffffffffffffffff81111561170957611708611129565b5b61171585828601611246565b9150509250929050565b60006020828403121561173557611734611124565b5b6000611743848285016113c7565b91505092915050565b600060e082019050611761600083018a611386565b8181036020830152611773818961130c565b90508181036040830152611787818861130c565b9050818103606083015261179b818761130c565b905081810360808301526117af818661130c565b90506117be60a0830185611386565b81810360c08301526117d0818461130c565b905098975050505050505050565b7f4e487b7100000000000000000000000000000000000000000000000000000000600052602260045260246000fd5b6000600282049050600182168061182557607f821691505b60208210811415611839576118386117de565b5b50919050565b7f4e487b7100000000000000000000000000000000000000000000000000000000600052601160045260246000fd5b60006118798261137c565b91507fffffffffffffffffffffffffffffffffffffffffffffffffffffffffffffffff8214156118ac576118ab61183f565b5b600182019050919050565b600081905092915050565b60006118cd826112bd565b6118d781856118b7565b93506118e78185602086016112d9565b80840191505092915050565b60006118ff82846118c2565b91508190509291505056fea264697066735822122026731c824c943dcbe1ec7d4bbe33edbd0954754980b6f936fd5704ef7d01f5ce64736f6c634300080c0033",
  "immutableReferences": {},
  "source": "// SPDX-License-Identifier: MIT\npragma solidity >=0.4.22 <0.9.0;\ncontract Evote{\n    uint public candidatesCount=0;\n    uint public userCount=0;\n    string public changeState=\"\";\n    string public adminAddress=\"\";\n mapping(uint => candidates) public candidatesList;\n mapping(string => email) public emailList;\n mapping(string => aadhar) public aadharList;\n mapping(string => user) public usersList;\n\n struct user{\n      string username;\n      string email;\n      string password;\n      bool isVoted;\n      string aadhar;\n      string userAddress;\n\n  }\n struct email{\n      string accountAddress;\n      string aadhar;\n  }\n struct aadhar{\n      string accountAddress;\n      string email;\n  }\n \n  struct candidates{\n      uint id;\n      string name;\n      string age;\n      string party;\n      string qualification;\n      uint voteCount;\n      string symbol;\n  }\n\n  // events\n\n  //  event userCreated(\n  //     string username,\n  //     string email,\n  //     string password,\n  //     bool isVoted,\n  //     string aadhar\n      \n  //   );\n\n   event emailCreated(\n      string accountAddress,\n      string aadhar\n    );\n   event aadharCreated(\n      string accountAddress,\n      string email\n    );\n  //  event candidatesCreated(\n  //     uint id,\n  //     string name,\n  //     string age,\n  //     string party,\n  //     string qualification,\n  //     uint voteCount\n  //   );\n\n   \n    function createUser(string memory _username,string memory _email,string memory _password,string memory _aadhar,string memory _userAddress ) public {\n      \n        userCount++;\n\n        usersList[_email] = user(_username,_email,_password,false,_aadhar,_userAddress);\n      \n        // emit userCreated(_username,_email,_password,false,_aadhar);\n    }\n\n  function createCandidate(string memory _name,string memory _age,string memory _party,string memory _qualification,string memory _symbol) public {\n      \n        candidatesCount++;\n       \n        candidatesList[candidatesCount] = candidates(candidatesCount,_name,_age,_party,_qualification,0,_symbol);\n      \n        // emit candidatesCreated(candidatesCount,_name,_age,_party,_qualification,0);\n    }\n  function addVote(uint id,string memory _email) public {\n        \n        candidatesList[id].voteCount++;\n        usersList[_email].isVoted=true;\n      \n    }\n  function changeStates(string memory _name, string memory _adminAddress) public {\n\n        changeState=_name;\n        adminAddress=_adminAddress;\n    }\n\n    function appendIsVote(string memory _email) public {\n\n         usersList[_email].isVoted=true;\n    }\n\n  function createAdharEmail(string memory _aadharNum, string memory _accountAddress,string memory _email) public {\n        aadharList[_aadharNum] = aadhar(_accountAddress,_email);\n\n        usersList[_email].aadhar=_aadharNum;\n\n        emit aadharCreated(_accountAddress, _email);\n  }\n  \n\n}",
  "sourcePath": "E:\\TrustExchange\\src\\contracts\\Evote.sol",
  "compiler": {
    "name": "solc",
    "version": "0.8.12+commit.f00d7308.Emscripten.clang"
  },
  "schemaVersion": "3.4.16",
  "updatedAt": "2024-03-15T05:41:17.542Z",
  "networkType": "ethereum",
  "devdoc": {
    "kind": "dev",
    "methods": {},
    "version": 1
  },
  "userdoc": {
    "kind": "user",
    "methods": {},
    "version": 1
  }
}